{
  "address": "0x5FbDB2315678afecb367f032d93F642f64180aa3",
  "abi": [
    {
      "inputs": [
        {
          "internalType": "uint256",
          "name": "_mintlimit",
          "type": "uint256"
        },
        {
          "internalType": "bool",
          "name": "_paused",
          "type": "bool"
        },
        {
          "internalType": "bool",
          "name": "_publicMint",
          "type": "bool"
        },
        {
          "internalType": "bool",
          "name": "_mintPaused",
          "type": "bool"
        },
        {
          "internalType": "bool",
          "name": "_revealed",
          "type": "bool"
        }
      ],
      "stateMutability": "nonpayable",
      "type": "constructor"
    },
    {
      "inputs": [],
      "name": "Audoxo__AlreadyMinted",
      "type": "error"
    },
    {
      "inputs": [],
      "name": "Audoxo__TokenUriMustNotBeEmpty",
      "type": "error"
    },
    {
      "inputs": [],
      "name": "PublicMintIsPaused",
      "type": "error"
    },
    {
      "anonymous": false,
      "inputs": [
        {
          "indexed": true,
          "internalType": "address",
          "name": "owner",
          "type": "address"
        },
        {
          "indexed": true,
          "internalType": "address",
          "name": "approved",
          "type": "address"
        },
        {
          "indexed": true,
          "internalType": "uint256",
          "name": "tokenId",
          "type": "uint256"
        }
      ],
      "name": "Approval",
      "type": "event"
    },
    {
      "anonymous": false,
      "inputs": [
        {
          "indexed": true,
          "internalType": "address",
          "name": "owner",
          "type": "address"
        },
        {
          "indexed": true,
          "internalType": "address",
          "name": "operator",
          "type": "address"
        },
        {
          "indexed": false,
          "internalType": "bool",
          "name": "approved",
          "type": "bool"
        }
      ],
      "name": "ApprovalForAll",
      "type": "event"
    },
    {
      "anonymous": false,
      "inputs": [
        {
          "indexed": true,
          "internalType": "uint256",
          "name": "tokenId",
          "type": "uint256"
        },
        {
          "indexed": false,
          "internalType": "address",
          "name": "seller",
          "type": "address"
        },
        {
          "indexed": false,
          "internalType": "address",
          "name": "owner",
          "type": "address"
        },
        {
          "indexed": false,
          "internalType": "uint256",
          "name": "price",
          "type": "uint256"
        },
        {
          "indexed": false,
          "internalType": "bool",
          "name": "sold",
          "type": "bool"
        }
      ],
      "name": "MarketItemCreated",
      "type": "event"
    },
    {
      "anonymous": false,
      "inputs": [
        {
          "indexed": true,
          "internalType": "address",
          "name": "previousOwner",
          "type": "address"
        },
        {
          "indexed": true,
          "internalType": "address",
          "name": "newOwner",
          "type": "address"
        }
      ],
      "name": "OwnershipTransferred",
      "type": "event"
    },
    {
      "anonymous": false,
      "inputs": [
        {
          "indexed": true,
          "internalType": "address",
          "name": "from",
          "type": "address"
        },
        {
          "indexed": true,
          "internalType": "address",
          "name": "to",
          "type": "address"
        },
        {
          "indexed": true,
          "internalType": "uint256",
          "name": "tokenId",
          "type": "uint256"
        }
      ],
      "name": "Transfer",
      "type": "event"
    },
    {
      "inputs": [
        {
          "internalType": "address",
          "name": "to",
          "type": "address"
        },
        {
          "internalType": "uint256",
          "name": "tokenId",
          "type": "uint256"
        }
      ],
      "name": "approve",
      "outputs": [],
      "stateMutability": "nonpayable",
      "type": "function"
    },
    {
      "inputs": [
        {
          "internalType": "address",
          "name": "owner",
          "type": "address"
        }
      ],
      "name": "balanceOf",
      "outputs": [
        {
          "internalType": "uint256",
          "name": "",
          "type": "uint256"
        }
      ],
      "stateMutability": "view",
      "type": "function"
    },
    {
      "inputs": [
        {
          "internalType": "uint256",
          "name": "tokenId",
          "type": "uint256"
        },
        {
          "internalType": "uint256",
          "name": "price",
          "type": "uint256"
        }
      ],
      "name": "createMarketItem",
      "outputs": [],
      "stateMutability": "payable",
      "type": "function"
    },
    {
      "inputs": [
        {
          "internalType": "uint256",
          "name": "tokenId",
          "type": "uint256"
        }
      ],
      "name": "createMarketSale",
      "outputs": [],
      "stateMutability": "payable",
      "type": "function"
    },
    {
      "inputs": [],
      "name": "fetchItemsListed",
      "outputs": [
        {
          "components": [
            {
              "internalType": "uint256",
              "name": "tokenId",
              "type": "uint256"
            },
            {
              "internalType": "address payable",
              "name": "seller",
              "type": "address"
            },
            {
              "internalType": "address payable",
              "name": "owner",
              "type": "address"
            },
            {
              "internalType": "uint256",
              "name": "price",
              "type": "uint256"
            },
            {
              "internalType": "bool",
              "name": "sold",
              "type": "bool"
            }
          ],
          "internalType": "struct AudoxoMarketplace.MarketItem[]",
          "name": "",
          "type": "tuple[]"
        }
      ],
      "stateMutability": "view",
      "type": "function"
    },
    {
      "inputs": [],
      "name": "fetchMarketItems",
      "outputs": [
        {
          "components": [
            {
              "internalType": "uint256",
              "name": "tokenId",
              "type": "uint256"
            },
            {
              "internalType": "address payable",
              "name": "seller",
              "type": "address"
            },
            {
              "internalType": "address payable",
              "name": "owner",
              "type": "address"
            },
            {
              "internalType": "uint256",
              "name": "price",
              "type": "uint256"
            },
            {
              "internalType": "bool",
              "name": "sold",
              "type": "bool"
            }
          ],
          "internalType": "struct AudoxoMarketplace.MarketItem[]",
          "name": "",
          "type": "tuple[]"
        }
      ],
      "stateMutability": "view",
      "type": "function"
    },
    {
      "inputs": [],
      "name": "fetchMyNFTs",
      "outputs": [
        {
          "components": [
            {
              "internalType": "uint256",
              "name": "tokenId",
              "type": "uint256"
            },
            {
              "internalType": "address payable",
              "name": "seller",
              "type": "address"
            },
            {
              "internalType": "address payable",
              "name": "owner",
              "type": "address"
            },
            {
              "internalType": "uint256",
              "name": "price",
              "type": "uint256"
            },
            {
              "internalType": "bool",
              "name": "sold",
              "type": "bool"
            }
          ],
          "internalType": "struct AudoxoMarketplace.MarketItem[]",
          "name": "",
          "type": "tuple[]"
        }
      ],
      "stateMutability": "view",
      "type": "function"
    },
    {
      "inputs": [
        {
          "internalType": "uint256",
          "name": "tokenId",
          "type": "uint256"
        }
      ],
      "name": "getApproved",
      "outputs": [
        {
          "internalType": "address",
          "name": "",
          "type": "address"
        }
      ],
      "stateMutability": "view",
      "type": "function"
    },
    {
      "inputs": [],
      "name": "getContractBalance",
      "outputs": [
        {
          "internalType": "uint256",
          "name": "",
          "type": "uint256"
        }
      ],
      "stateMutability": "view",
      "type": "function"
    },
    {
      "inputs": [],
      "name": "getListingPrice",
      "outputs": [
        {
          "internalType": "uint256",
          "name": "",
          "type": "uint256"
        }
      ],
      "stateMutability": "view",
      "type": "function"
    },
    {
      "inputs": [],
      "name": "getListingProceeds",
      "outputs": [
        {
          "internalType": "uint256",
          "name": "",
          "type": "uint256"
        }
      ],
      "stateMutability": "view",
      "type": "function"
    },
    {
      "inputs": [],
      "name": "getMintLimit",
      "outputs": [
        {
          "internalType": "uint256",
          "name": "",
          "type": "uint256"
        }
      ],
      "stateMutability": "view",
      "type": "function"
    },
    {
      "inputs": [],
      "name": "getMintPauseStatus",
      "outputs": [
        {
          "internalType": "bool",
          "name": "",
          "type": "bool"
        }
      ],
      "stateMutability": "view",
      "type": "function"
    },
    {
      "inputs": [],
      "name": "getMintingsLeft",
      "outputs": [
        {
          "internalType": "uint256",
          "name": "",
          "type": "uint256"
        }
      ],
      "stateMutability": "view",
      "type": "function"
    },
    {
      "inputs": [],
      "name": "getPauseState",
      "outputs": [
        {
          "internalType": "bool",
          "name": "",
          "type": "bool"
        }
      ],
      "stateMutability": "view",
      "type": "function"
    },
    {
      "inputs": [],
      "name": "getProceeds",
      "outputs": [
        {
          "internalType": "uint256",
          "name": "",
          "type": "uint256"
        }
      ],
      "stateMutability": "view",
      "type": "function"
    },
    {
      "inputs": [],
      "name": "getPublicMintState",
      "outputs": [
        {
          "internalType": "bool",
          "name": "",
          "type": "bool"
        }
      ],
      "stateMutability": "view",
      "type": "function"
    },
    {
      "inputs": [],
      "name": "getRevealState",
      "outputs": [
        {
          "internalType": "bool",
          "name": "",
          "type": "bool"
        }
      ],
      "stateMutability": "view",
      "type": "function"
    },
    {
      "inputs": [],
      "name": "getVipAddresses",
      "outputs": [
        {
          "internalType": "address[]",
          "name": "",
          "type": "address[]"
        }
      ],
      "stateMutability": "view",
      "type": "function"
    },
    {
      "inputs": [
        {
          "internalType": "address",
          "name": "owner",
          "type": "address"
        },
        {
          "internalType": "address",
          "name": "operator",
          "type": "address"
        }
      ],
      "name": "isApprovedForAll",
      "outputs": [
        {
          "internalType": "bool",
          "name": "",
          "type": "bool"
        }
      ],
      "stateMutability": "view",
      "type": "function"
    },
    {
      "inputs": [
        {
          "internalType": "address",
          "name": "",
          "type": "address"
        }
      ],
      "name": "isVip",
      "outputs": [
        {
          "internalType": "bool",
          "name": "",
          "type": "bool"
        }
      ],
      "stateMutability": "view",
      "type": "function"
    },
    {
      "inputs": [
        {
          "internalType": "string",
          "name": "_tokenURI",
          "type": "string"
        }
      ],
      "name": "mintToken",
      "outputs": [
        {
          "internalType": "uint256",
          "name": "",
          "type": "uint256"
        }
      ],
      "stateMutability": "payable",
      "type": "function"
    },
    {
      "inputs": [
        {
          "internalType": "address",
          "name": "",
          "type": "address"
        }
      ],
      "name": "mintingLeft",
      "outputs": [
        {
          "internalType": "uint256",
          "name": "",
          "type": "uint256"
        }
      ],
      "stateMutability": "view",
      "type": "function"
    },
    {
      "inputs": [],
      "name": "name",
      "outputs": [
        {
          "internalType": "string",
          "name": "",
          "type": "string"
        }
      ],
      "stateMutability": "view",
      "type": "function"
    },
    {
      "inputs": [],
      "name": "owner",
      "outputs": [
        {
          "internalType": "address",
          "name": "",
          "type": "address"
        }
      ],
      "stateMutability": "view",
      "type": "function"
    },
    {
      "inputs": [
        {
          "internalType": "uint256",
          "name": "tokenId",
          "type": "uint256"
        }
      ],
      "name": "ownerOf",
      "outputs": [
        {
          "internalType": "address",
          "name": "",
          "type": "address"
        }
      ],
      "stateMutability": "view",
      "type": "function"
    },
    {
      "inputs": [
        {
          "internalType": "address",
          "name": "toVip",
          "type": "address"
        }
      ],
      "name": "removeVip",
      "outputs": [],
      "stateMutability": "nonpayable",
      "type": "function"
    },
    {
      "inputs": [],
      "name": "renounceOwnership",
      "outputs": [],
      "stateMutability": "nonpayable",
      "type": "function"
    },
    {
      "inputs": [
        {
          "internalType": "address",
          "name": "from",
          "type": "address"
        },
        {
          "internalType": "address",
          "name": "to",
          "type": "address"
        },
        {
          "internalType": "uint256",
          "name": "tokenId",
          "type": "uint256"
        }
      ],
      "name": "safeTransferFrom",
      "outputs": [],
      "stateMutability": "nonpayable",
      "type": "function"
    },
    {
      "inputs": [
        {
          "internalType": "address",
          "name": "from",
          "type": "address"
        },
        {
          "internalType": "address",
          "name": "to",
          "type": "address"
        },
        {
          "internalType": "uint256",
          "name": "tokenId",
          "type": "uint256"
        },
        {
          "internalType": "bytes",
          "name": "data",
          "type": "bytes"
        }
      ],
      "name": "safeTransferFrom",
      "outputs": [],
      "stateMutability": "nonpayable",
      "type": "function"
    },
    {
      "inputs": [
        {
          "internalType": "address",
          "name": "operator",
          "type": "address"
        },
        {
          "internalType": "bool",
          "name": "approved",
          "type": "bool"
        }
      ],
      "name": "setApprovalForAll",
      "outputs": [],
      "stateMutability": "nonpayable",
      "type": "function"
    },
    {
      "inputs": [
        {
          "internalType": "address",
          "name": "toVip",
          "type": "address"
        }
      ],
      "name": "setVip",
      "outputs": [],
      "stateMutability": "nonpayable",
      "type": "function"
    },
    {
      "inputs": [
        {
          "internalType": "bytes4",
          "name": "interfaceId",
          "type": "bytes4"
        }
      ],
      "name": "supportsInterface",
      "outputs": [
        {
          "internalType": "bool",
          "name": "",
          "type": "bool"
        }
      ],
      "stateMutability": "view",
      "type": "function"
    },
    {
      "inputs": [],
      "name": "symbol",
      "outputs": [
        {
          "internalType": "string",
          "name": "",
          "type": "string"
        }
      ],
      "stateMutability": "view",
      "type": "function"
    },
    {
      "inputs": [],
      "name": "toggleMintPause",
      "outputs": [],
      "stateMutability": "nonpayable",
      "type": "function"
    },
    {
      "inputs": [],
      "name": "togglePause",
      "outputs": [],
      "stateMutability": "nonpayable",
      "type": "function"
    },
    {
      "inputs": [],
      "name": "togglePublicMinting",
      "outputs": [],
      "stateMutability": "nonpayable",
      "type": "function"
    },
    {
      "inputs": [],
      "name": "toggleReveal",
      "outputs": [],
      "stateMutability": "nonpayable",
      "type": "function"
    },
    {
      "inputs": [
        {
          "internalType": "uint256",
          "name": "tokenId",
          "type": "uint256"
        }
      ],
      "name": "tokenURI",
      "outputs": [
        {
          "internalType": "string",
          "name": "",
          "type": "string"
        }
      ],
      "stateMutability": "view",
      "type": "function"
    },
    {
      "inputs": [
        {
          "internalType": "address",
          "name": "from",
          "type": "address"
        },
        {
          "internalType": "address",
          "name": "to",
          "type": "address"
        },
        {
          "internalType": "uint256",
          "name": "tokenId",
          "type": "uint256"
        }
      ],
      "name": "transferFrom",
      "outputs": [],
      "stateMutability": "nonpayable",
      "type": "function"
    },
    {
      "inputs": [
        {
          "internalType": "address",
          "name": "newOwner",
          "type": "address"
        }
      ],
      "name": "transferOwnership",
      "outputs": [],
      "stateMutability": "nonpayable",
      "type": "function"
    },
    {
      "inputs": [
        {
          "internalType": "uint256",
          "name": "_listingPrice",
          "type": "uint256"
        }
      ],
      "name": "updateListingPrice",
      "outputs": [],
      "stateMutability": "payable",
      "type": "function"
    },
    {
      "inputs": [
        {
          "internalType": "uint256",
          "name": "newLimit",
          "type": "uint256"
        }
      ],
      "name": "updateMintLimit",
      "outputs": [],
      "stateMutability": "nonpayable",
      "type": "function"
    },
    {
      "inputs": [
        {
          "internalType": "address",
          "name": "toReset",
          "type": "address"
        },
        {
          "internalType": "uint256",
          "name": "listingAmt",
          "type": "uint256"
        }
      ],
      "name": "updateUserLimit",
      "outputs": [],
      "stateMutability": "nonpayable",
      "type": "function"
    },
    {
      "inputs": [
        {
          "internalType": "uint256",
          "name": "",
          "type": "uint256"
        }
      ],
      "name": "vipAddresses",
      "outputs": [
        {
          "internalType": "address",
          "name": "",
          "type": "address"
        }
      ],
      "stateMutability": "view",
      "type": "function"
    },
    {
      "inputs": [],
      "name": "withdrawListingPrice",
      "outputs": [],
      "stateMutability": "payable",
      "type": "function"
    },
    {
      "inputs": [],
      "name": "withdrawProceeds",
      "outputs": [],
      "stateMutability": "payable",
      "type": "function"
    }
  ],
  "transactionHash": "0x51ef14eeaff9b3621a4b29ae46d2f9a865cd762ea113b2b0195dde6bdd313b71",
  "args": [
    1,
    false,
    false,
    false,
    false
  ],
  "numDeployments": 1,
  "solcInputHash": "ad3af4f839a3ee5a9e376b772e7f67db",
  "bytecode": "0x60806040526658d15e17628000600c55604051806080016040528060568152602001620060f6605691396010908051906020019062000040929190620002dc565b503480156200004e57600080fd5b506040516200614c3803806200614c833981810160405281019062000074919062000409565b6040518060400160405280600681526020017f4175646f786f00000000000000000000000000000000000000000000000000008152506040518060400160405280600481526020017f4144584f000000000000000000000000000000000000000000000000000000008152508160009080519060200190620000f8929190620002dc565b50806001908051906020019062000111929190620002dc565b50505060016007819055506200013c620001306200020e60201b60201c565b6200021660201b60201c565b84600f8190555083601160016101000a81548160ff02191690831515021790555082601160006101000a81548160ff0219169083151502179055506001601560003373ffffffffffffffffffffffffffffffffffffffff1673ffffffffffffffffffffffffffffffffffffffff16815260200190815260200160002060006101000a81548160ff02191690831515021790555081601160026101000a81548160ff02191690831515021790555080601160036101000a81548160ff0219169083151502179055505050505050620004f6565b600033905090565b6000600860009054906101000a900473ffffffffffffffffffffffffffffffffffffffff16905081600860006101000a81548173ffffffffffffffffffffffffffffffffffffffff021916908373ffffffffffffffffffffffffffffffffffffffff1602179055508173ffffffffffffffffffffffffffffffffffffffff168173ffffffffffffffffffffffffffffffffffffffff167f8be0079c531659141344cd1fd0a4f28419497f9722a3daafe3b4186f6b6457e060405160405180910390a35050565b828054620002ea90620004c0565b90600052602060002090601f0160209004810192826200030e57600085556200035a565b82601f106200032957805160ff19168380011785556200035a565b828001600101855582156200035a579182015b82811115620003595782518255916020019190600101906200033c565b5b5090506200036991906200036d565b5090565b5b80821115620003885760008160009055506001016200036e565b5090565b600080fd5b6000819050919050565b620003a68162000391565b8114620003b257600080fd5b50565b600081519050620003c6816200039b565b92915050565b60008115159050919050565b620003e381620003cc565b8114620003ef57600080fd5b50565b6000815190506200040381620003d8565b92915050565b600080600080600060a086880312156200042857620004276200038c565b5b60006200043888828901620003b5565b95505060206200044b88828901620003f2565b94505060406200045e88828901620003f2565b93505060606200047188828901620003f2565b92505060806200048488828901620003f2565b9150509295509295909350565b7f4e487b7100000000000000000000000000000000000000000000000000000000600052602260045260246000fd5b60006002820490506001821680620004d957607f821691505b60208210811415620004f057620004ef62000491565b5b50919050565b615bf080620005066000396000f3fe6080604052600436106102885760003560e01c80636b8a21fc1161015a578063ae0cb2a0116100c1578063c4ae31681161007a578063c4ae316814610924578063c87b56dd1461093b578063e01d55c514610978578063e4439a28146109a1578063e985e9c5146109cc578063f2fde38b14610a0957610288565b8063ae0cb2a014610842578063ae677aa31461086d578063b88d4fde14610889578063bd16a816146108b2578063be9af536146108dd578063c06af3f0146108f957610288565b80638da5cb5b116101135780638da5cb5b146107635780639038e6931461078e5780639218aa281461079857806395d89b41146107c35780639a44f1fb146107ee578063a22cb4651461081957610288565b80636b8a21fc146106655780636f9fb98a1461067c57806370a08231146106a7578063715018a6146106e457806383bd9587146106fb57806384203f4b1461072657610288565b80632df0d528116101fe57806345f8fa80116101b757806345f8fa801461056757806356bda4a2146105925780635b8ad429146105bd5780635c464229146105d45780636045051a146105eb5780636352211e1461062857610288565b80632df0d52814610463578063321d4eac1461048c57806333eba49a146104b5578063361c1995146104e557806342842e0e1461050157806345776a251461052a57610288565b80630f08efe0116102505780630f08efe01461038457806312e85585146103af57806315b92cad146103da57806316544206146103e4578063202e37401461040f57806323b872dd1461043a57610288565b806301ffc9a71461028d57806306fdde03146102ca578063081812fc146102f5578063095ea7b3146103325780630b6c90821461035b575b600080fd5b34801561029957600080fd5b506102b460048036038101906102af9190614025565b610a32565b6040516102c1919061406d565b60405180910390f35b3480156102d657600080fd5b506102df610b14565b6040516102ec9190614121565b60405180910390f35b34801561030157600080fd5b5061031c60048036038101906103179190614179565b610ba6565b60405161032991906141e7565b60405180910390f35b34801561033e57600080fd5b506103596004803603810190610354919061422e565b610bec565b005b34801561036757600080fd5b50610382600480360381019061037d919061426e565b610d04565b005b34801561039057600080fd5b50610399610e57565b6040516103a691906143f1565b60405180910390f35b3480156103bb57600080fd5b506103c46110c0565b6040516103d19190614422565b60405180910390f35b6103e26110ca565b005b3480156103f057600080fd5b506103f9611171565b604051610406919061406d565b60405180910390f35b34801561041b57600080fd5b50610424611188565b60405161043191906143f1565b60405180910390f35b34801561044657600080fd5b50610461600480360381019061045c919061443d565b611476565b005b34801561046f57600080fd5b5061048a6004803603810190610485919061426e565b6114d6565b005b34801561049857600080fd5b506104b360048036038101906104ae919061422e565b6116a2565b005b6104cf60048036038101906104ca91906145c5565b611814565b6040516104dc9190614422565b60405180910390f35b6104ff60048036038101906104fa919061460e565b611ca8565b005b34801561050d57600080fd5b506105286004803603810190610523919061443d565b612034565b005b34801561053657600080fd5b50610551600480360381019061054c919061426e565b612054565b60405161055e9190614422565b60405180910390f35b34801561057357600080fd5b5061057c61206c565b60405161058991906143f1565b60405180910390f35b34801561059e57600080fd5b506105a761235a565b6040516105b49190614422565b60405180910390f35b3480156105c957600080fd5b506105d2612364565b005b3480156105e057600080fd5b506105e9612398565b005b3480156105f757600080fd5b50610612600480360381019061060d9190614179565b6123cc565b60405161061f91906141e7565b60405180910390f35b34801561063457600080fd5b5061064f600480360381019061064a9190614179565b61240b565b60405161065c91906141e7565b60405180910390f35b34801561067157600080fd5b5061067a6124bd565b005b34801561068857600080fd5b506106916124f1565b60405161069e9190614422565b60405180910390f35b3480156106b357600080fd5b506106ce60048036038101906106c9919061426e565b6124f9565b6040516106db9190614422565b60405180910390f35b3480156106f057600080fd5b506106f96125b1565b005b34801561070757600080fd5b506107106125c5565b60405161071d9190614422565b60405180910390f35b34801561073257600080fd5b5061074d6004803603810190610748919061426e565b61260c565b60405161075a919061406d565b60405180910390f35b34801561076f57600080fd5b5061077861262c565b60405161078591906141e7565b60405180910390f35b610796612656565b005b3480156107a457600080fd5b506107ad612851565b6040516107ba9190614422565b60405180910390f35b3480156107cf57600080fd5b506107d86128aa565b6040516107e59190614121565b60405180910390f35b3480156107fa57600080fd5b5061080361293c565b604051610810919061406d565b60405180910390f35b34801561082557600080fd5b50610840600480360381019061083b919061467a565b612953565b005b34801561084e57600080fd5b50610857612969565b6040516108649190614422565b60405180910390f35b61088760048036038101906108829190614179565b61297b565b005b34801561089557600080fd5b506108b060048036038101906108ab919061475b565b61298d565b005b3480156108be57600080fd5b506108c76129ef565b6040516108d4919061489c565b60405180910390f35b6108f760048036038101906108f29190614179565b612a7d565b005b34801561090557600080fd5b5061090e612d5f565b60405161091b919061406d565b60405180910390f35b34801561093057600080fd5b50610939612d76565b005b34801561094757600080fd5b50610962600480360381019061095d9190614179565b612daa565b60405161096f9190614121565b60405180910390f35b34801561098457600080fd5b5061099f600480360381019061099a9190614179565b612e64565b005b3480156109ad57600080fd5b506109b6612e76565b6040516109c3919061406d565b60405180910390f35b3480156109d857600080fd5b506109f360048036038101906109ee91906148be565b612e8d565b604051610a00919061406d565b60405180910390f35b348015610a1557600080fd5b50610a306004803603810190610a2b919061426e565b612f21565b005b60007f80ac58cd000000000000000000000000000000000000000000000000000000007bffffffffffffffffffffffffffffffffffffffffffffffffffffffff1916827bffffffffffffffffffffffffffffffffffffffffffffffffffffffff19161480610afd57507f5b5e139f000000000000000000000000000000000000000000000000000000007bffffffffffffffffffffffffffffffffffffffffffffffffffffffff1916827bffffffffffffffffffffffffffffffffffffffffffffffffffffffff1916145b80610b0d5750610b0c82612fa5565b5b9050919050565b606060008054610b239061492d565b80601f0160208091040260200160405190810160405280929190818152602001828054610b4f9061492d565b8015610b9c5780601f10610b7157610100808354040283529160200191610b9c565b820191906000526020600020905b815481529060010190602001808311610b7f57829003601f168201915b5050505050905090565b6000610bb18261300f565b6004600083815260200190815260200160002060009054906101000a900473ffffffffffffffffffffffffffffffffffffffff169050919050565b6000610bf78261240b565b90508073ffffffffffffffffffffffffffffffffffffffff168373ffffffffffffffffffffffffffffffffffffffff161415610c68576040517f08c379a0000000000000000000000000000000000000000000000000000000008152600401610c5f906149d1565b60405180910390fd5b8073ffffffffffffffffffffffffffffffffffffffff16610c8761305a565b73ffffffffffffffffffffffffffffffffffffffff161480610cb65750610cb581610cb061305a565b612e8d565b5b610cf5576040517f08c379a0000000000000000000000000000000000000000000000000000000008152600401610cec90614a63565b60405180910390fd5b610cff8383613062565b505050565b610d0c61311b565b601560008273ffffffffffffffffffffffffffffffffffffffff1673ffffffffffffffffffffffffffffffffffffffff16815260200190815260200160002060009054906101000a900460ff1615610d99576040517f08c379a0000000000000000000000000000000000000000000000000000000008152600401610d9090614acf565b60405180910390fd5b6001601560008373ffffffffffffffffffffffffffffffffffffffff1673ffffffffffffffffffffffffffffffffffffffff16815260200190815260200160002060006101000a81548160ff021916908315150217905550600e819080600181540180825580915050600190039060005260206000200160009091909190916101000a81548173ffffffffffffffffffffffffffffffffffffffff021916908373ffffffffffffffffffffffffffffffffffffffff16021790555050565b60606000610e65600a613199565b90506000610e73600b613199565b610e7d600a613199565b610e879190614b1e565b90506000808267ffffffffffffffff811115610ea657610ea561449a565b5b604051908082528060200260200182016040528015610edf57816020015b610ecc613eb9565b815260200190600190039081610ec45790505b50905060005b848110156110b5573073ffffffffffffffffffffffffffffffffffffffff1660126000600184610f159190614b52565b815260200190815260200160002060020160009054906101000a900473ffffffffffffffffffffffffffffffffffffffff1673ffffffffffffffffffffffffffffffffffffffff1614156110a2576000600182610f729190614b52565b90506000601260008381526020019081526020016000209050806040518060a0016040529081600082015481526020016001820160009054906101000a900473ffffffffffffffffffffffffffffffffffffffff1673ffffffffffffffffffffffffffffffffffffffff1673ffffffffffffffffffffffffffffffffffffffff1681526020016002820160009054906101000a900473ffffffffffffffffffffffffffffffffffffffff1673ffffffffffffffffffffffffffffffffffffffff1673ffffffffffffffffffffffffffffffffffffffff168152602001600382015481526020016004820160009054906101000a900460ff16151515158152505084868151811061108557611084614ba8565b5b602002602001018190525060018561109d9190614b52565b945050505b80806110ad90614bd7565b915050610ee5565b508094505050505090565b6000600c54905090565b6110d261311b565b6000600d541415611118576040517f08c379a000000000000000000000000000000000000000000000000000000000815260040161110f90614c6c565b60405180910390fd5b6000600d5490506000600d819055503373ffffffffffffffffffffffffffffffffffffffff166108fc829081150290604051600060405180830381858888f1935050505015801561116d573d6000803e3d6000fd5b5050565b6000601160029054906101000a900460ff16905090565b606060006111966009613199565b905060008060005b8381101561123f573373ffffffffffffffffffffffffffffffffffffffff16601260006001846111ce9190614b52565b815260200190815260200160002060020160009054906101000a900473ffffffffffffffffffffffffffffffffffffffff1673ffffffffffffffffffffffffffffffffffffffff16141561122c576001836112299190614b52565b92505b808061123790614bd7565b91505061119e565b5060008267ffffffffffffffff81111561125c5761125b61449a565b5b60405190808252806020026020018201604052801561129557816020015b611282613eb9565b81526020019060019003908161127a5790505b50905060005b8481101561146b573373ffffffffffffffffffffffffffffffffffffffff16601260006001846112cb9190614b52565b815260200190815260200160002060020160009054906101000a900473ffffffffffffffffffffffffffffffffffffffff1673ffffffffffffffffffffffffffffffffffffffff1614156114585760006001826113289190614b52565b90506000601260008381526020019081526020016000209050806040518060a0016040529081600082015481526020016001820160009054906101000a900473ffffffffffffffffffffffffffffffffffffffff1673ffffffffffffffffffffffffffffffffffffffff1673ffffffffffffffffffffffffffffffffffffffff1681526020016002820160009054906101000a900473ffffffffffffffffffffffffffffffffffffffff1673ffffffffffffffffffffffffffffffffffffffff1673ffffffffffffffffffffffffffffffffffffffff168152602001600382015481526020016004820160009054906101000a900460ff16151515158152505084868151811061143b5761143a614ba8565b5b60200260200101819052506001856114539190614b52565b945050505b808061146390614bd7565b91505061129b565b508094505050505090565b61148761148161305a565b826131a7565b6114c6576040517f08c379a00000000000000000000000000000000000000000000000000000000081526004016114bd90614cfe565b60405180910390fd5b6114d183838361323c565b505050565b6114de61311b565b601560008273ffffffffffffffffffffffffffffffffffffffff1673ffffffffffffffffffffffffffffffffffffffff16815260200190815260200160002060009054906101000a900460ff1661156a576040517f08c379a000000000000000000000000000000000000000000000000000000000815260040161156190614d6a565b60405180910390fd5b6000601560008373ffffffffffffffffffffffffffffffffffffffff1673ffffffffffffffffffffffffffffffffffffffff16815260200190815260200160002060006101000a81548160ff0219169083151502179055506000600e80549050905060005b81811061169d578273ffffffffffffffffffffffffffffffffffffffff16600e828154811061160157611600614ba8565b5b9060005260206000200160009054906101000a900473ffffffffffffffffffffffffffffffffffffffff1673ffffffffffffffffffffffffffffffffffffffff16141561168a57600e818154811061165c5761165b614ba8565b5b9060005260206000200160006101000a81549073ffffffffffffffffffffffffffffffffffffffff02191690555b808061169590614bd7565b9150506115cf565b505050565b6116aa61311b565b601560008373ffffffffffffffffffffffffffffffffffffffff1673ffffffffffffffffffffffffffffffffffffffff16815260200190815260200160002060009054906101000a900460ff1615611737576040517f08c379a000000000000000000000000000000000000000000000000000000000815260040161172e90614dd6565b60405180910390fd5b6000601660008473ffffffffffffffffffffffffffffffffffffffff1673ffffffffffffffffffffffffffffffffffffffff1681526020019081526020016000205414156117ba576040517f08c379a00000000000000000000000000000000000000000000000000000000081526004016117b190614e42565b60405180910390fd5b80601660008473ffffffffffffffffffffffffffffffffffffffff1673ffffffffffffffffffffffffffffffffffffffff16815260200190815260200160002060008282546118099190614b1e565b925050819055505050565b6000601160019054906101000a900460ff1615611866576040517f08c379a000000000000000000000000000000000000000000000000000000000815260040161185d90614eae565b60405180910390fd5b601160029054906101000a900460ff16156118b6576040517f08c379a00000000000000000000000000000000000000000000000000000000081526004016118ad90614f1a565b60405180910390fd5b60008251116118f1576040517f5e4c975a00000000000000000000000000000000000000000000000000000000815260040160405180910390fd5b6014826040516119019190614f76565b908152602001604051809103902060009054906101000a900460ff1615611954576040517f5f3b70f500000000000000000000000000000000000000000000000000000000815260040160405180910390fd5b601560003373ffffffffffffffffffffffffffffffffffffffff1673ffffffffffffffffffffffffffffffffffffffff16815260200190815260200160002060009054906101000a900460ff16611acc57601160009054906101000a900460ff1615611a9957600f54601660003373ffffffffffffffffffffffffffffffffffffffff1673ffffffffffffffffffffffffffffffffffffffff1681526020019081526020016000205410611a3d576040517f08c379a0000000000000000000000000000000000000000000000000000000008152600401611a3490614fd9565b60405180910390fd5b6001601660003373ffffffffffffffffffffffffffffffffffffffff1673ffffffffffffffffffffffffffffffffffffffff1681526020019081526020016000206000828254611a8d9190614b52565b92505081905550611acb565b6040517fe70cd58c00000000000000000000000000000000000000000000000000000000815260040160405180910390fd5b5b6001601483604051611ade9190614f76565b908152602001604051809103902060006101000a81548160ff021916908315150217905550611b0d60096134a3565b6000611b196009613199565b9050611b2533826134b9565b611b2f8184613693565b6040518060a00160405280828152602001600073ffffffffffffffffffffffffffffffffffffffff1681526020013373ffffffffffffffffffffffffffffffffffffffff1681526020016000815260200160001515815250601260008381526020019081526020016000206000820151816000015560208201518160010160006101000a81548173ffffffffffffffffffffffffffffffffffffffff021916908373ffffffffffffffffffffffffffffffffffffffff16021790555060408201518160020160006101000a81548173ffffffffffffffffffffffffffffffffffffffff021916908373ffffffffffffffffffffffffffffffffffffffff1602179055506060820151816003015560808201518160040160006101000a81548160ff021916908315150217905550905050807fb640004f1d14576d0c209e240cad0410e0d8c0c33a09375861fbadae2588a98d600033600080604051611c97949392919061503e565b60405180910390a280915050919050565b601160019054906101000a900460ff1615611cf8576040517f08c379a0000000000000000000000000000000000000000000000000000000008152600401611cef90614eae565b60405180910390fd5b60008111611d3b576040517f08c379a0000000000000000000000000000000000000000000000000000000008152600401611d32906150cf565b60405180910390fd5b600c543414611d7f576040517f08c379a0000000000000000000000000000000000000000000000000000000008152600401611d7690615161565b60405180910390fd5b600073ffffffffffffffffffffffffffffffffffffffff166012600084815260200190815260200160002060010160009054906101000a900473ffffffffffffffffffffffffffffffffffffffff1673ffffffffffffffffffffffffffffffffffffffff1614611e24576040517f08c379a0000000000000000000000000000000000000000000000000000000008152600401611e1b906151cd565b60405180910390fd5b3373ffffffffffffffffffffffffffffffffffffffff166012600084815260200190815260200160002060020160009054906101000a900473ffffffffffffffffffffffffffffffffffffffff1673ffffffffffffffffffffffffffffffffffffffff1614611ec8576040517f08c379a0000000000000000000000000000000000000000000000000000000008152600401611ebf90615239565b60405180910390fd5b611ed2600a6134a3565b60006012600084815260200190815260200160002060040160006101000a81548160ff021916908315150217905550806012600084815260200190815260200160002060030181905550336012600084815260200190815260200160002060010160006101000a81548173ffffffffffffffffffffffffffffffffffffffff021916908373ffffffffffffffffffffffffffffffffffffffff160217905550306012600084815260200190815260200160002060020160006101000a81548173ffffffffffffffffffffffffffffffffffffffff021916908373ffffffffffffffffffffffffffffffffffffffff160217905550611fd133308461323c565b6658d15e17628000600d6000828254611fea9190614b52565b92505081905550817fb640004f1d14576d0c209e240cad0410e0d8c0c33a09375861fbadae2588a98d33308460006040516120289493929190615259565b60405180910390a25050565b61204f8383836040518060200160405280600081525061298d565b505050565b60166020528060005260406000206000915090505481565b6060600061207a600a613199565b905060008060005b83811015612123573373ffffffffffffffffffffffffffffffffffffffff16601260006001846120b29190614b52565b815260200190815260200160002060010160009054906101000a900473ffffffffffffffffffffffffffffffffffffffff1673ffffffffffffffffffffffffffffffffffffffff1614156121105760018361210d9190614b52565b92505b808061211b90614bd7565b915050612082565b5060008267ffffffffffffffff8111156121405761213f61449a565b5b60405190808252806020026020018201604052801561217957816020015b612166613eb9565b81526020019060019003908161215e5790505b50905060005b8481101561234f573373ffffffffffffffffffffffffffffffffffffffff16601260006001846121af9190614b52565b815260200190815260200160002060010160009054906101000a900473ffffffffffffffffffffffffffffffffffffffff1673ffffffffffffffffffffffffffffffffffffffff16141561233c57600060018261220c9190614b52565b90506000601260008381526020019081526020016000209050806040518060a0016040529081600082015481526020016001820160009054906101000a900473ffffffffffffffffffffffffffffffffffffffff1673ffffffffffffffffffffffffffffffffffffffff1673ffffffffffffffffffffffffffffffffffffffff1681526020016002820160009054906101000a900473ffffffffffffffffffffffffffffffffffffffff1673ffffffffffffffffffffffffffffffffffffffff1673ffffffffffffffffffffffffffffffffffffffff168152602001600382015481526020016004820160009054906101000a900460ff16151515158152505084868151811061231f5761231e614ba8565b5b60200260200101819052506001856123379190614b52565b945050505b808061234790614bd7565b91505061217f565b508094505050505090565b6000600f54905090565b61236c61311b565b601160039054906101000a900460ff1615601160036101000a81548160ff021916908315150217905550565b6123a061311b565b601160029054906101000a900460ff1615601160026101000a81548160ff021916908315150217905550565b600e81815481106123dc57600080fd5b906000526020600020016000915054906101000a900473ffffffffffffffffffffffffffffffffffffffff1681565b6000806002600084815260200190815260200160002060009054906101000a900473ffffffffffffffffffffffffffffffffffffffff169050600073ffffffffffffffffffffffffffffffffffffffff168173ffffffffffffffffffffffffffffffffffffffff1614156124b4576040517f08c379a00000000000000000000000000000000000000000000000000000000081526004016124ab906152ea565b60405180910390fd5b80915050919050565b6124c561311b565b601160009054906101000a900460ff1615601160006101000a81548160ff021916908315150217905550565b600047905090565b60008073ffffffffffffffffffffffffffffffffffffffff168273ffffffffffffffffffffffffffffffffffffffff16141561256a576040517f08c379a00000000000000000000000000000000000000000000000000000000081526004016125619061537c565b60405180910390fd5b600360008373ffffffffffffffffffffffffffffffffffffffff1673ffffffffffffffffffffffffffffffffffffffff168152602001908152602001600020549050919050565b6125b961311b565b6125c36000613707565b565b6000601360003373ffffffffffffffffffffffffffffffffffffffff1673ffffffffffffffffffffffffffffffffffffffff16815260200190815260200160002054905090565b60156020528060005260406000206000915054906101000a900460ff1681565b6000600860009054906101000a900473ffffffffffffffffffffffffffffffffffffffff16905090565b601160019054906101000a900460ff16156126a6576040517f08c379a000000000000000000000000000000000000000000000000000000000815260040161269d90614eae565b60405180910390fd5b600260075414156126ec576040517f08c379a00000000000000000000000000000000000000000000000000000000081526004016126e3906153e8565b60405180910390fd5b60026007819055506000601360003373ffffffffffffffffffffffffffffffffffffffff1673ffffffffffffffffffffffffffffffffffffffff1681526020019081526020016000205411612776576040517f08c379a000000000000000000000000000000000000000000000000000000000815260040161276d9061547a565b60405180910390fd5b6000601360003373ffffffffffffffffffffffffffffffffffffffff1673ffffffffffffffffffffffffffffffffffffffff1681526020019081526020016000205490506000601360003373ffffffffffffffffffffffffffffffffffffffff1673ffffffffffffffffffffffffffffffffffffffff168152602001908152602001600020819055503373ffffffffffffffffffffffffffffffffffffffff166108fc829081150290604051600060405180830381858888f19350505050158015612845573d6000803e3d6000fd5b50506001600781905550565b600080601660003373ffffffffffffffffffffffffffffffffffffffff1673ffffffffffffffffffffffffffffffffffffffff16815260200190815260200160002054600f546128a19190614b1e565b90508091505090565b6060600180546128b99061492d565b80601f01602080910402602001604051908101604052809291908181526020018280546128e59061492d565b80156129325780601f1061290757610100808354040283529160200191612932565b820191906000526020600020905b81548152906001019060200180831161291557829003601f168201915b5050505050905090565b6000601160019054906101000a900460ff16905090565b61296561295e61305a565b83836137cd565b5050565b600061297361311b565b600d54905090565b61298361311b565b80600c8190555050565b61299e61299861305a565b836131a7565b6129dd576040517f08c379a00000000000000000000000000000000000000000000000000000000081526004016129d490614cfe565b60405180910390fd5b6129e98484848461393a565b50505050565b6060600e805480602002602001604051908101604052809291908181526020018280548015612a7357602002820191906000526020600020905b8160009054906101000a900473ffffffffffffffffffffffffffffffffffffffff1673ffffffffffffffffffffffffffffffffffffffff1681526020019060010190808311612a29575b5050505050905090565b601160019054906101000a900460ff1615612acd576040517f08c379a0000000000000000000000000000000000000000000000000000000008152600401612ac490614eae565b60405180910390fd5b60006012600083815260200190815260200160002060030154905060006012600084815260200190815260200160002060010160009054906101000a900473ffffffffffffffffffffffffffffffffffffffff1690503373ffffffffffffffffffffffffffffffffffffffff168173ffffffffffffffffffffffffffffffffffffffff161415612b92576040517f08c379a0000000000000000000000000000000000000000000000000000000008152600401612b89906154e6565b60405180910390fd5b81341015612bd5576040517f08c379a0000000000000000000000000000000000000000000000000000000008152600401612bcc90615578565b60405180910390fd5b336012600085815260200190815260200160002060020160006101000a81548173ffffffffffffffffffffffffffffffffffffffff021916908373ffffffffffffffffffffffffffffffffffffffff16021790555060016012600085815260200190815260200160002060040160006101000a81548160ff02191690831515021790555060006012600085815260200190815260200160002060010160006101000a81548173ffffffffffffffffffffffffffffffffffffffff021916908373ffffffffffffffffffffffffffffffffffffffff160217905550612cb9600b6134a3565b612cc430338561323c565b34601360008373ffffffffffffffffffffffffffffffffffffffff1673ffffffffffffffffffffffffffffffffffffffff1681526020019081526020016000206000828254612d139190614b52565b92505081905550827fb640004f1d14576d0c209e240cad0410e0d8c0c33a09375861fbadae2588a98d600033856001604051612d529493929190615259565b60405180910390a2505050565b6000601160009054906101000a900460ff16905090565b612d7e61311b565b601160019054906101000a900460ff1615601160016101000a81548160ff021916908315150217905550565b6060601160039054906101000a900460ff1615612dd157612dca82613996565b9050612e5f565b60108054612dde9061492d565b80601f0160208091040260200160405190810160405280929190818152602001828054612e0a9061492d565b8015612e575780601f10612e2c57610100808354040283529160200191612e57565b820191906000526020600020905b815481529060010190602001808311612e3a57829003601f168201915b505050505090505b919050565b612e6c61311b565b80600f8190555050565b6000601160039054906101000a900460ff16905090565b6000600560008473ffffffffffffffffffffffffffffffffffffffff1673ffffffffffffffffffffffffffffffffffffffff16815260200190815260200160002060008373ffffffffffffffffffffffffffffffffffffffff1673ffffffffffffffffffffffffffffffffffffffff16815260200190815260200160002060009054906101000a900460ff16905092915050565b612f2961311b565b600073ffffffffffffffffffffffffffffffffffffffff168173ffffffffffffffffffffffffffffffffffffffff161415612f99576040517f08c379a0000000000000000000000000000000000000000000000000000000008152600401612f909061560a565b60405180910390fd5b612fa281613707565b50565b60007f01ffc9a7000000000000000000000000000000000000000000000000000000007bffffffffffffffffffffffffffffffffffffffffffffffffffffffff1916827bffffffffffffffffffffffffffffffffffffffffffffffffffffffff1916149050919050565b61301881613aa9565b613057576040517f08c379a000000000000000000000000000000000000000000000000000000000815260040161304e906152ea565b60405180910390fd5b50565b600033905090565b816004600083815260200190815260200160002060006101000a81548173ffffffffffffffffffffffffffffffffffffffff021916908373ffffffffffffffffffffffffffffffffffffffff160217905550808273ffffffffffffffffffffffffffffffffffffffff166130d58361240b565b73ffffffffffffffffffffffffffffffffffffffff167f8c5be1e5ebec7d5bd14f71427d1e84f3dd0314c0f7b2291e5b200ac8c7c3b92560405160405180910390a45050565b61312361305a565b73ffffffffffffffffffffffffffffffffffffffff1661314161262c565b73ffffffffffffffffffffffffffffffffffffffff1614613197576040517f08c379a000000000000000000000000000000000000000000000000000000000815260040161318e90615676565b60405180910390fd5b565b600081600001549050919050565b6000806131b38361240b565b90508073ffffffffffffffffffffffffffffffffffffffff168473ffffffffffffffffffffffffffffffffffffffff1614806131f557506131f48185612e8d565b5b8061323357508373ffffffffffffffffffffffffffffffffffffffff1661321b84610ba6565b73ffffffffffffffffffffffffffffffffffffffff16145b91505092915050565b8273ffffffffffffffffffffffffffffffffffffffff1661325c8261240b565b73ffffffffffffffffffffffffffffffffffffffff16146132b2576040517f08c379a00000000000000000000000000000000000000000000000000000000081526004016132a990615708565b60405180910390fd5b600073ffffffffffffffffffffffffffffffffffffffff168273ffffffffffffffffffffffffffffffffffffffff161415613322576040517f08c379a00000000000000000000000000000000000000000000000000000000081526004016133199061579a565b60405180910390fd5b61332d838383613b15565b613338600082613062565b6001600360008573ffffffffffffffffffffffffffffffffffffffff1673ffffffffffffffffffffffffffffffffffffffff16815260200190815260200160002060008282546133889190614b1e565b925050819055506001600360008473ffffffffffffffffffffffffffffffffffffffff1673ffffffffffffffffffffffffffffffffffffffff16815260200190815260200160002060008282546133df9190614b52565b92505081905550816002600083815260200190815260200160002060006101000a81548173ffffffffffffffffffffffffffffffffffffffff021916908373ffffffffffffffffffffffffffffffffffffffff160217905550808273ffffffffffffffffffffffffffffffffffffffff168473ffffffffffffffffffffffffffffffffffffffff167fddf252ad1be2c89b69c2b068fc378daa952ba7f163c4a11628f55a4df523b3ef60405160405180910390a461349e838383613b1a565b505050565b6001816000016000828254019250508190555050565b600073ffffffffffffffffffffffffffffffffffffffff168273ffffffffffffffffffffffffffffffffffffffff161415613529576040517f08c379a000000000000000000000000000000000000000000000000000000000815260040161352090615806565b60405180910390fd5b61353281613aa9565b15613572576040517f08c379a000000000000000000000000000000000000000000000000000000000815260040161356990615872565b60405180910390fd5b61357e60008383613b15565b6001600360008473ffffffffffffffffffffffffffffffffffffffff1673ffffffffffffffffffffffffffffffffffffffff16815260200190815260200160002060008282546135ce9190614b52565b92505081905550816002600083815260200190815260200160002060006101000a81548173ffffffffffffffffffffffffffffffffffffffff021916908373ffffffffffffffffffffffffffffffffffffffff160217905550808273ffffffffffffffffffffffffffffffffffffffff16600073ffffffffffffffffffffffffffffffffffffffff167fddf252ad1be2c89b69c2b068fc378daa952ba7f163c4a11628f55a4df523b3ef60405160405180910390a461368f60008383613b1a565b5050565b61369c82613aa9565b6136db576040517f08c379a00000000000000000000000000000000000000000000000000000000081526004016136d290615904565b60405180910390fd5b80600660008481526020019081526020016000209080519060200190613702929190613f16565b505050565b6000600860009054906101000a900473ffffffffffffffffffffffffffffffffffffffff16905081600860006101000a81548173ffffffffffffffffffffffffffffffffffffffff021916908373ffffffffffffffffffffffffffffffffffffffff1602179055508173ffffffffffffffffffffffffffffffffffffffff168173ffffffffffffffffffffffffffffffffffffffff167f8be0079c531659141344cd1fd0a4f28419497f9722a3daafe3b4186f6b6457e060405160405180910390a35050565b8173ffffffffffffffffffffffffffffffffffffffff168373ffffffffffffffffffffffffffffffffffffffff16141561383c576040517f08c379a000000000000000000000000000000000000000000000000000000000815260040161383390615970565b60405180910390fd5b80600560008573ffffffffffffffffffffffffffffffffffffffff1673ffffffffffffffffffffffffffffffffffffffff16815260200190815260200160002060008473ffffffffffffffffffffffffffffffffffffffff1673ffffffffffffffffffffffffffffffffffffffff16815260200190815260200160002060006101000a81548160ff0219169083151502179055508173ffffffffffffffffffffffffffffffffffffffff168373ffffffffffffffffffffffffffffffffffffffff167f17307eab39ab6107e8899845ad3d59bd9653f200f220920489ca2b5937696c318360405161392d919061406d565b60405180910390a3505050565b61394584848461323c565b61395184848484613b1f565b613990576040517f08c379a000000000000000000000000000000000000000000000000000000000815260040161398790615a02565b60405180910390fd5b50505050565b60606139a18261300f565b60006006600084815260200190815260200160002080546139c19061492d565b80601f01602080910402602001604051908101604052809291908181526020018280546139ed9061492d565b8015613a3a5780601f10613a0f57610100808354040283529160200191613a3a565b820191906000526020600020905b815481529060010190602001808311613a1d57829003601f168201915b505050505090506000613a4b613cb6565b9050600081511415613a61578192505050613aa4565b600082511115613a96578082604051602001613a7e929190615a22565b60405160208183030381529060405292505050613aa4565b613a9f84613ccd565b925050505b919050565b60008073ffffffffffffffffffffffffffffffffffffffff166002600084815260200190815260200160002060009054906101000a900473ffffffffffffffffffffffffffffffffffffffff1673ffffffffffffffffffffffffffffffffffffffff1614159050919050565b505050565b505050565b6000613b408473ffffffffffffffffffffffffffffffffffffffff16613d35565b15613ca9578373ffffffffffffffffffffffffffffffffffffffff1663150b7a02613b6961305a565b8786866040518563ffffffff1660e01b8152600401613b8b9493929190615a9b565b602060405180830381600087803b158015613ba557600080fd5b505af1925050508015613bd657506040513d601f19601f82011682018060405250810190613bd39190615afc565b60015b613c59573d8060008114613c06576040519150601f19603f3d011682016040523d82523d6000602084013e613c0b565b606091505b50600081511415613c51576040517f08c379a0000000000000000000000000000000000000000000000000000000008152600401613c4890615a02565b60405180910390fd5b805181602001fd5b63150b7a0260e01b7bffffffffffffffffffffffffffffffffffffffffffffffffffffffff1916817bffffffffffffffffffffffffffffffffffffffffffffffffffffffff191614915050613cae565b600190505b949350505050565b606060405180602001604052806000815250905090565b6060613cd88261300f565b6000613ce2613cb6565b90506000815111613d025760405180602001604052806000815250613d2d565b80613d0c84613d58565b604051602001613d1d929190615a22565b6040516020818303038152906040525b915050919050565b6000808273ffffffffffffffffffffffffffffffffffffffff163b119050919050565b60606000821415613da0576040518060400160405280600181526020017f30000000000000000000000000000000000000000000000000000000000000008152509050613eb4565b600082905060005b60008214613dd2578080613dbb90614bd7565b915050600a82613dcb9190615b58565b9150613da8565b60008167ffffffffffffffff811115613dee57613ded61449a565b5b6040519080825280601f01601f191660200182016040528015613e205781602001600182028036833780820191505090505b5090505b60008514613ead57600182613e399190614b1e565b9150600a85613e489190615b89565b6030613e549190614b52565b60f81b818381518110613e6a57613e69614ba8565b5b60200101907effffffffffffffffffffffffffffffffffffffffffffffffffffffffffffff1916908160001a905350600a85613ea69190615b58565b9450613e24565b8093505050505b919050565b6040518060a0016040528060008152602001600073ffffffffffffffffffffffffffffffffffffffff168152602001600073ffffffffffffffffffffffffffffffffffffffff168152602001600081526020016000151581525090565b828054613f229061492d565b90600052602060002090601f016020900481019282613f445760008555613f8b565b82601f10613f5d57805160ff1916838001178555613f8b565b82800160010185558215613f8b579182015b82811115613f8a578251825591602001919060010190613f6f565b5b509050613f989190613f9c565b5090565b5b80821115613fb5576000816000905550600101613f9d565b5090565b6000604051905090565b600080fd5b600080fd5b60007fffffffff0000000000000000000000000000000000000000000000000000000082169050919050565b61400281613fcd565b811461400d57600080fd5b50565b60008135905061401f81613ff9565b92915050565b60006020828403121561403b5761403a613fc3565b5b600061404984828501614010565b91505092915050565b60008115159050919050565b61406781614052565b82525050565b6000602082019050614082600083018461405e565b92915050565b600081519050919050565b600082825260208201905092915050565b60005b838110156140c25780820151818401526020810190506140a7565b838111156140d1576000848401525b50505050565b6000601f19601f8301169050919050565b60006140f382614088565b6140fd8185614093565b935061410d8185602086016140a4565b614116816140d7565b840191505092915050565b6000602082019050818103600083015261413b81846140e8565b905092915050565b6000819050919050565b61415681614143565b811461416157600080fd5b50565b6000813590506141738161414d565b92915050565b60006020828403121561418f5761418e613fc3565b5b600061419d84828501614164565b91505092915050565b600073ffffffffffffffffffffffffffffffffffffffff82169050919050565b60006141d1826141a6565b9050919050565b6141e1816141c6565b82525050565b60006020820190506141fc60008301846141d8565b92915050565b61420b816141c6565b811461421657600080fd5b50565b60008135905061422881614202565b92915050565b6000806040838503121561424557614244613fc3565b5b600061425385828601614219565b925050602061426485828601614164565b9150509250929050565b60006020828403121561428457614283613fc3565b5b600061429284828501614219565b91505092915050565b600081519050919050565b600082825260208201905092915050565b6000819050602082019050919050565b6142d081614143565b82525050565b60006142e1826141a6565b9050919050565b6142f1816142d6565b82525050565b61430081614052565b82525050565b60a08201600082015161431c60008501826142c7565b50602082015161432f60208501826142e8565b50604082015161434260408501826142e8565b50606082015161435560608501826142c7565b50608082015161436860808501826142f7565b50505050565b600061437a8383614306565b60a08301905092915050565b6000602082019050919050565b600061439e8261429b565b6143a881856142a6565b93506143b3836142b7565b8060005b838110156143e45781516143cb888261436e565b97506143d683614386565b9250506001810190506143b7565b5085935050505092915050565b6000602082019050818103600083015261440b8184614393565b905092915050565b61441c81614143565b82525050565b60006020820190506144376000830184614413565b92915050565b60008060006060848603121561445657614455613fc3565b5b600061446486828701614219565b935050602061447586828701614219565b925050604061448686828701614164565b9150509250925092565b600080fd5b600080fd5b7f4e487b7100000000000000000000000000000000000000000000000000000000600052604160045260246000fd5b6144d2826140d7565b810181811067ffffffffffffffff821117156144f1576144f061449a565b5b80604052505050565b6000614504613fb9565b905061451082826144c9565b919050565b600067ffffffffffffffff8211156145305761452f61449a565b5b614539826140d7565b9050602081019050919050565b82818337600083830152505050565b600061456861456384614515565b6144fa565b90508281526020810184848401111561458457614583614495565b5b61458f848285614546565b509392505050565b600082601f8301126145ac576145ab614490565b5b81356145bc848260208601614555565b91505092915050565b6000602082840312156145db576145da613fc3565b5b600082013567ffffffffffffffff8111156145f9576145f8613fc8565b5b61460584828501614597565b91505092915050565b6000806040838503121561462557614624613fc3565b5b600061463385828601614164565b925050602061464485828601614164565b9150509250929050565b61465781614052565b811461466257600080fd5b50565b6000813590506146748161464e565b92915050565b6000806040838503121561469157614690613fc3565b5b600061469f85828601614219565b92505060206146b085828601614665565b9150509250929050565b600067ffffffffffffffff8211156146d5576146d461449a565b5b6146de826140d7565b9050602081019050919050565b60006146fe6146f9846146ba565b6144fa565b90508281526020810184848401111561471a57614719614495565b5b614725848285614546565b509392505050565b600082601f83011261474257614741614490565b5b81356147528482602086016146eb565b91505092915050565b6000806000806080858703121561477557614774613fc3565b5b600061478387828801614219565b945050602061479487828801614219565b93505060406147a587828801614164565b925050606085013567ffffffffffffffff8111156147c6576147c5613fc8565b5b6147d28782880161472d565b91505092959194509250565b600081519050919050565b600082825260208201905092915050565b6000819050602082019050919050565b614813816141c6565b82525050565b6000614825838361480a565b60208301905092915050565b6000602082019050919050565b6000614849826147de565b61485381856147e9565b935061485e836147fa565b8060005b8381101561488f5781516148768882614819565b975061488183614831565b925050600181019050614862565b5085935050505092915050565b600060208201905081810360008301526148b6818461483e565b905092915050565b600080604083850312156148d5576148d4613fc3565b5b60006148e385828601614219565b92505060206148f485828601614219565b9150509250929050565b7f4e487b7100000000000000000000000000000000000000000000000000000000600052602260045260246000fd5b6000600282049050600182168061494557607f821691505b60208210811415614959576149586148fe565b5b50919050565b7f4552433732313a20617070726f76616c20746f2063757272656e74206f776e6560008201527f7200000000000000000000000000000000000000000000000000000000000000602082015250565b60006149bb602183614093565b91506149c68261495f565b604082019050919050565b600060208201905081810360008301526149ea816149ae565b9050919050565b7f4552433732313a20617070726f76652063616c6c6572206973206e6f7420746f60008201527f6b656e206f776e6572206e6f7220617070726f76656420666f7220616c6c0000602082015250565b6000614a4d603e83614093565b9150614a58826149f1565b604082019050919050565b60006020820190508181036000830152614a7c81614a40565b9050919050565b7f4164647265737320697320616c72656164792076697000000000000000000000600082015250565b6000614ab9601683614093565b9150614ac482614a83565b602082019050919050565b60006020820190508181036000830152614ae881614aac565b9050919050565b7f4e487b7100000000000000000000000000000000000000000000000000000000600052601160045260246000fd5b6000614b2982614143565b9150614b3483614143565b925082821015614b4757614b46614aef565b5b828203905092915050565b6000614b5d82614143565b9150614b6883614143565b9250827fffffffffffffffffffffffffffffffffffffffffffffffffffffffffffffffff03821115614b9d57614b9c614aef565b5b828201905092915050565b7f4e487b7100000000000000000000000000000000000000000000000000000000600052603260045260246000fd5b6000614be282614143565b91507fffffffffffffffffffffffffffffffffffffffffffffffffffffffffffffffff821415614c1557614c14614aef565b5b600182019050919050565b7f63616e7420776974686472617720302065746800000000000000000000000000600082015250565b6000614c56601383614093565b9150614c6182614c20565b602082019050919050565b60006020820190508181036000830152614c8581614c49565b9050919050565b7f4552433732313a2063616c6c6572206973206e6f7420746f6b656e206f776e6560008201527f72206e6f7220617070726f766564000000000000000000000000000000000000602082015250565b6000614ce8602e83614093565b9150614cf382614c8c565b604082019050919050565b60006020820190508181036000830152614d1781614cdb565b9050919050565b7f4164647265737320697320616c7265616479206e6f7420612076697000000000600082015250565b6000614d54601c83614093565b9150614d5f82614d1e565b602082019050919050565b60006020820190508181036000830152614d8381614d47565b9050919050565b7f4164647265737320697320566970000000000000000000000000000000000000600082015250565b6000614dc0600e83614093565b9150614dcb82614d8a565b602082019050919050565b60006020820190508181036000830152614def81614db3565b9050919050565b7f416c7265616479206174206d696e206c696d6974000000000000000000000000600082015250565b6000614e2c601483614093565b9150614e3782614df6565b602082019050919050565b60006020820190508181036000830152614e5b81614e1f565b9050919050565b7f436f6e7472616374206973205061757365640000000000000000000000000000600082015250565b6000614e98601283614093565b9150614ea382614e62565b602082019050919050565b60006020820190508181036000830152614ec781614e8b565b9050919050565b7f4d696e74696e6720697320506175736564000000000000000000000000000000600082015250565b6000614f04601183614093565b9150614f0f82614ece565b602082019050919050565b60006020820190508181036000830152614f3381614ef7565b9050919050565b600081905092915050565b6000614f5082614088565b614f5a8185614f3a565b9350614f6a8185602086016140a4565b80840191505092915050565b6000614f828284614f45565b915081905092915050565b7f4d696e74696e67206c696d697420657865656465642100000000000000000000600082015250565b6000614fc3601683614093565b9150614fce82614f8d565b602082019050919050565b60006020820190508181036000830152614ff281614fb6565b9050919050565b6000819050919050565b6000819050919050565b600061502861502361501e84614ff9565b615003565b614143565b9050919050565b6150388161500d565b82525050565b600060808201905061505360008301876141d8565b61506060208301866141d8565b61506d604083018561502f565b61507a606083018461405e565b95945050505050565b7f5072696365206d757374206265206174206c6561737420312077656900000000600082015250565b60006150b9601c83614093565b91506150c482615083565b602082019050919050565b600060208201905081810360008301526150e8816150ac565b9050919050565b7f5072696365206d75737420626520657175616c20746f206c697374696e67207060008201527f7269636500000000000000000000000000000000000000000000000000000000602082015250565b600061514b602483614093565b9150615156826150ef565b604082019050919050565b6000602082019050818103600083015261517a8161513e565b9050919050565b7f416c7265616479204c6973746564210000000000000000000000000000000000600082015250565b60006151b7600f83614093565b91506151c282615181565b602082019050919050565b600060208201905081810360008301526151e6816151aa565b9050919050565b7f4f6e6c79206f776e65722063616e204c697374204974656d2100000000000000600082015250565b6000615223601983614093565b915061522e826151ed565b602082019050919050565b6000602082019050818103600083015261525281615216565b9050919050565b600060808201905061526e60008301876141d8565b61527b60208301866141d8565b6152886040830185614413565b615295606083018461405e565b95945050505050565b7f4552433732313a20696e76616c696420746f6b656e2049440000000000000000600082015250565b60006152d4601883614093565b91506152df8261529e565b602082019050919050565b60006020820190508181036000830152615303816152c7565b9050919050565b7f4552433732313a2061646472657373207a65726f206973206e6f74206120766160008201527f6c6964206f776e65720000000000000000000000000000000000000000000000602082015250565b6000615366602983614093565b91506153718261530a565b604082019050919050565b6000602082019050818103600083015261539581615359565b9050919050565b7f5265656e7472616e637947756172643a207265656e7472616e742063616c6c00600082015250565b60006153d2601f83614093565b91506153dd8261539c565b602082019050919050565b60006020820190508181036000830152615401816153c5565b9050919050565b7f43616e27742077697468647261772c2062616c616e636520697320656d70747960008201527f2100000000000000000000000000000000000000000000000000000000000000602082015250565b6000615464602183614093565b915061546f82615408565b604082019050919050565b6000602082019050818103600083015261549381615457565b9050919050565b7f4f776e65722063616e742062757920686973204f776e204e6674000000000000600082015250565b60006154d0601a83614093565b91506154db8261549a565b602082019050919050565b600060208201905081810360008301526154ff816154c3565b9050919050565b7f506c65617365207375626d6974207468652061736b696e67207072696365206960008201527f6e206f7264657220746f20636f6d706c65746520746865207075726368617365602082015250565b6000615562604083614093565b915061556d82615506565b604082019050919050565b6000602082019050818103600083015261559181615555565b9050919050565b7f4f776e61626c653a206e6577206f776e657220697320746865207a65726f206160008201527f6464726573730000000000000000000000000000000000000000000000000000602082015250565b60006155f4602683614093565b91506155ff82615598565b604082019050919050565b60006020820190508181036000830152615623816155e7565b9050919050565b7f4f776e61626c653a2063616c6c6572206973206e6f7420746865206f776e6572600082015250565b6000615660602083614093565b915061566b8261562a565b602082019050919050565b6000602082019050818103600083015261568f81615653565b9050919050565b7f4552433732313a207472616e736665722066726f6d20696e636f72726563742060008201527f6f776e6572000000000000000000000000000000000000000000000000000000602082015250565b60006156f2602583614093565b91506156fd82615696565b604082019050919050565b60006020820190508181036000830152615721816156e5565b9050919050565b7f4552433732313a207472616e7366657220746f20746865207a65726f2061646460008201527f7265737300000000000000000000000000000000000000000000000000000000602082015250565b6000615784602483614093565b915061578f82615728565b604082019050919050565b600060208201905081810360008301526157b381615777565b9050919050565b7f4552433732313a206d696e7420746f20746865207a65726f2061646472657373600082015250565b60006157f0602083614093565b91506157fb826157ba565b602082019050919050565b6000602082019050818103600083015261581f816157e3565b9050919050565b7f4552433732313a20746f6b656e20616c7265616479206d696e74656400000000600082015250565b600061585c601c83614093565b915061586782615826565b602082019050919050565b6000602082019050818103600083015261588b8161584f565b9050919050565b7f45524337323155524953746f726167653a2055524920736574206f66206e6f6e60008201527f6578697374656e7420746f6b656e000000000000000000000000000000000000602082015250565b60006158ee602e83614093565b91506158f982615892565b604082019050919050565b6000602082019050818103600083015261591d816158e1565b9050919050565b7f4552433732313a20617070726f766520746f2063616c6c657200000000000000600082015250565b600061595a601983614093565b915061596582615924565b602082019050919050565b600060208201905081810360008301526159898161594d565b9050919050565b7f4552433732313a207472616e7366657220746f206e6f6e20455243373231526560008201527f63656976657220696d706c656d656e7465720000000000000000000000000000602082015250565b60006159ec603283614093565b91506159f782615990565b604082019050919050565b60006020820190508181036000830152615a1b816159df565b9050919050565b6000615a2e8285614f45565b9150615a3a8284614f45565b91508190509392505050565b600081519050919050565b600082825260208201905092915050565b6000615a6d82615a46565b615a778185615a51565b9350615a878185602086016140a4565b615a90816140d7565b840191505092915050565b6000608082019050615ab060008301876141d8565b615abd60208301866141d8565b615aca6040830185614413565b8181036060830152615adc8184615a62565b905095945050505050565b600081519050615af681613ff9565b92915050565b600060208284031215615b1257615b11613fc3565b5b6000615b2084828501615ae7565b91505092915050565b7f4e487b7100000000000000000000000000000000000000000000000000000000600052601260045260246000fd5b6000615b6382614143565b9150615b6e83614143565b925082615b7e57615b7d615b29565b5b828204905092915050565b6000615b9482614143565b9150615b9f83614143565b925082615baf57615bae615b29565b5b82820690509291505056fea26469706673582212206cb5a36bba81a20c6cc097d768c232b87a448e6179892a28e52f1969231534b864736f6c63430008080033697066733a2f2f6261667962656966356762357263756d633434756865616e696968716a7a64763272716a786432686c6b6d706f776f77747667756a6665377475692f72657665616c4d657461646174612e6a736f6e",
  "devdoc": {
    "kind": "dev",
    "methods": {
      "approve(address,uint256)": {
        "details": "See {IERC721-approve}."
      },
      "balanceOf(address)": {
        "details": "See {IERC721-balanceOf}."
      },
      "getApproved(uint256)": {
        "details": "See {IERC721-getApproved}."
      },
      "isApprovedForAll(address,address)": {
        "details": "See {IERC721-isApprovedForAll}."
      },
      "name()": {
        "details": "See {IERC721Metadata-name}."
      },
      "owner()": {
        "details": "Returns the address of the current owner."
      },
      "ownerOf(uint256)": {
        "details": "See {IERC721-ownerOf}."
      },
      "renounceOwnership()": {
        "details": "Leaves the contract without owner. It will not be possible to call `onlyOwner` functions anymore. Can only be called by the current owner. NOTE: Renouncing ownership will leave the contract without an owner, thereby removing any functionality that is only available to the owner."
      },
      "safeTransferFrom(address,address,uint256)": {
        "details": "See {IERC721-safeTransferFrom}."
      },
      "safeTransferFrom(address,address,uint256,bytes)": {
        "details": "See {IERC721-safeTransferFrom}."
      },
      "setApprovalForAll(address,bool)": {
        "details": "See {IERC721-setApprovalForAll}."
      },
      "supportsInterface(bytes4)": {
        "details": "See {IERC165-supportsInterface}."
      },
      "symbol()": {
        "details": "See {IERC721Metadata-symbol}."
      },
      "tokenURI(uint256)": {
        "details": "See {IERC721Metadata-tokenURI}."
      },
      "transferFrom(address,address,uint256)": {
        "details": "See {IERC721-transferFrom}."
      },
      "transferOwnership(address)": {
        "details": "Transfers ownership of the contract to a new account (`newOwner`). Can only be called by the current owner."
      }
    },
    "version": 1
  },
  "userdoc": {
    "kind": "user",
    "methods": {},
    "version": 1
  },
  "storageLayout": {
    "storage": [
      {
        "astId": 178,
        "contract": "contracts/AudoxoMarketplace.sol:AudoxoMarketplace",
        "label": "_name",
        "offset": 0,
        "slot": "0",
        "type": "t_string_storage"
      },
      {
        "astId": 180,
        "contract": "contracts/AudoxoMarketplace.sol:AudoxoMarketplace",
        "label": "_symbol",
        "offset": 0,
        "slot": "1",
        "type": "t_string_storage"
      },
      {
        "astId": 184,
        "contract": "contracts/AudoxoMarketplace.sol:AudoxoMarketplace",
        "label": "_owners",
        "offset": 0,
        "slot": "2",
        "type": "t_mapping(t_uint256,t_address)"
      },
      {
        "astId": 188,
        "contract": "contracts/AudoxoMarketplace.sol:AudoxoMarketplace",
        "label": "_balances",
        "offset": 0,
        "slot": "3",
        "type": "t_mapping(t_address,t_uint256)"
      },
      {
        "astId": 192,
        "contract": "contracts/AudoxoMarketplace.sol:AudoxoMarketplace",
        "label": "_tokenApprovals",
        "offset": 0,
        "slot": "4",
        "type": "t_mapping(t_uint256,t_address)"
      },
      {
        "astId": 198,
        "contract": "contracts/AudoxoMarketplace.sol:AudoxoMarketplace",
        "label": "_operatorApprovals",
        "offset": 0,
        "slot": "5",
        "type": "t_mapping(t_address,t_mapping(t_address,t_bool))"
      },
      {
        "astId": 1166,
        "contract": "contracts/AudoxoMarketplace.sol:AudoxoMarketplace",
        "label": "_tokenURIs",
        "offset": 0,
        "slot": "6",
        "type": "t_mapping(t_uint256,t_string_storage)"
      },
      {
        "astId": 123,
        "contract": "contracts/AudoxoMarketplace.sol:AudoxoMarketplace",
        "label": "_status",
        "offset": 0,
        "slot": "7",
        "type": "t_uint256"
      },
      {
        "astId": 7,
        "contract": "contracts/AudoxoMarketplace.sol:AudoxoMarketplace",
        "label": "_owner",
        "offset": 0,
        "slot": "8",
        "type": "t_address"
      },
      {
        "astId": 1986,
        "contract": "contracts/AudoxoMarketplace.sol:AudoxoMarketplace",
        "label": "_tokenIds",
        "offset": 0,
        "slot": "9",
        "type": "t_struct(Counter)1628_storage"
      },
      {
        "astId": 1989,
        "contract": "contracts/AudoxoMarketplace.sol:AudoxoMarketplace",
        "label": "_listItemId",
        "offset": 0,
        "slot": "10",
        "type": "t_struct(Counter)1628_storage"
      },
      {
        "astId": 1992,
        "contract": "contracts/AudoxoMarketplace.sol:AudoxoMarketplace",
        "label": "_itemsSold",
        "offset": 0,
        "slot": "11",
        "type": "t_struct(Counter)1628_storage"
      },
      {
        "astId": 1995,
        "contract": "contracts/AudoxoMarketplace.sol:AudoxoMarketplace",
        "label": "listingPrice",
        "offset": 0,
        "slot": "12",
        "type": "t_uint256"
      },
      {
        "astId": 1997,
        "contract": "contracts/AudoxoMarketplace.sol:AudoxoMarketplace",
        "label": "listingProceeds",
        "offset": 0,
        "slot": "13",
        "type": "t_uint256"
      },
      {
        "astId": 2000,
        "contract": "contracts/AudoxoMarketplace.sol:AudoxoMarketplace",
        "label": "vipAddresses",
        "offset": 0,
        "slot": "14",
        "type": "t_array(t_address)dyn_storage"
      },
      {
        "astId": 2002,
        "contract": "contracts/AudoxoMarketplace.sol:AudoxoMarketplace",
        "label": "mintLimit",
        "offset": 0,
        "slot": "15",
        "type": "t_uint256"
      },
      {
        "astId": 2005,
        "contract": "contracts/AudoxoMarketplace.sol:AudoxoMarketplace",
        "label": "revealUri",
        "offset": 0,
        "slot": "16",
        "type": "t_string_storage"
      },
      {
        "astId": 2007,
        "contract": "contracts/AudoxoMarketplace.sol:AudoxoMarketplace",
        "label": "publicMint",
        "offset": 0,
        "slot": "17",
        "type": "t_bool"
      },
      {
        "astId": 2009,
        "contract": "contracts/AudoxoMarketplace.sol:AudoxoMarketplace",
        "label": "paused",
        "offset": 1,
        "slot": "17",
        "type": "t_bool"
      },
      {
        "astId": 2011,
        "contract": "contracts/AudoxoMarketplace.sol:AudoxoMarketplace",
        "label": "mintPaused",
        "offset": 2,
        "slot": "17",
        "type": "t_bool"
      },
      {
        "astId": 2013,
        "contract": "contracts/AudoxoMarketplace.sol:AudoxoMarketplace",
        "label": "revealed",
        "offset": 3,
        "slot": "17",
        "type": "t_bool"
      },
      {
        "astId": 2018,
        "contract": "contracts/AudoxoMarketplace.sol:AudoxoMarketplace",
        "label": "idToMarketItem",
        "offset": 0,
        "slot": "18",
        "type": "t_mapping(t_uint256,t_struct(MarketItem)2045_storage)"
      },
      {
        "astId": 2022,
        "contract": "contracts/AudoxoMarketplace.sol:AudoxoMarketplace",
        "label": "sellerProceeds",
        "offset": 0,
        "slot": "19",
        "type": "t_mapping(t_address,t_uint256)"
      },
      {
        "astId": 2026,
        "contract": "contracts/AudoxoMarketplace.sol:AudoxoMarketplace",
        "label": "_audoxos",
        "offset": 0,
        "slot": "20",
        "type": "t_mapping(t_string_memory_ptr,t_bool)"
      },
      {
        "astId": 2030,
        "contract": "contracts/AudoxoMarketplace.sol:AudoxoMarketplace",
        "label": "isVip",
        "offset": 0,
        "slot": "21",
        "type": "t_mapping(t_address,t_bool)"
      },
      {
        "astId": 2034,
        "contract": "contracts/AudoxoMarketplace.sol:AudoxoMarketplace",
        "label": "mintingLeft",
        "offset": 0,
        "slot": "22",
        "type": "t_mapping(t_address,t_uint256)"
      }
    ],
    "types": {
      "t_address": {
        "encoding": "inplace",
        "label": "address",
        "numberOfBytes": "20"
      },
      "t_address_payable": {
        "encoding": "inplace",
        "label": "address payable",
        "numberOfBytes": "20"
      },
      "t_array(t_address)dyn_storage": {
        "base": "t_address",
        "encoding": "dynamic_array",
        "label": "address[]",
        "numberOfBytes": "32"
      },
      "t_bool": {
        "encoding": "inplace",
        "label": "bool",
        "numberOfBytes": "1"
      },
      "t_mapping(t_address,t_bool)": {
        "encoding": "mapping",
        "key": "t_address",
        "label": "mapping(address => bool)",
        "numberOfBytes": "32",
        "value": "t_bool"
      },
      "t_mapping(t_address,t_mapping(t_address,t_bool))": {
        "encoding": "mapping",
        "key": "t_address",
        "label": "mapping(address => mapping(address => bool))",
        "numberOfBytes": "32",
        "value": "t_mapping(t_address,t_bool)"
      },
      "t_mapping(t_address,t_uint256)": {
        "encoding": "mapping",
        "key": "t_address",
        "label": "mapping(address => uint256)",
        "numberOfBytes": "32",
        "value": "t_uint256"
      },
      "t_mapping(t_string_memory_ptr,t_bool)": {
        "encoding": "mapping",
        "key": "t_string_memory_ptr",
        "label": "mapping(string => bool)",
        "numberOfBytes": "32",
        "value": "t_bool"
      },
      "t_mapping(t_uint256,t_address)": {
        "encoding": "mapping",
        "key": "t_uint256",
        "label": "mapping(uint256 => address)",
        "numberOfBytes": "32",
        "value": "t_address"
      },
      "t_mapping(t_uint256,t_string_storage)": {
        "encoding": "mapping",
        "key": "t_uint256",
        "label": "mapping(uint256 => string)",
        "numberOfBytes": "32",
        "value": "t_string_storage"
      },
      "t_mapping(t_uint256,t_struct(MarketItem)2045_storage)": {
        "encoding": "mapping",
        "key": "t_uint256",
        "label": "mapping(uint256 => struct AudoxoMarketplace.MarketItem)",
        "numberOfBytes": "32",
        "value": "t_struct(MarketItem)2045_storage"
      },
      "t_string_memory_ptr": {
        "encoding": "bytes",
        "label": "string",
        "numberOfBytes": "32"
      },
      "t_string_storage": {
        "encoding": "bytes",
        "label": "string",
        "numberOfBytes": "32"
      },
      "t_struct(Counter)1628_storage": {
        "encoding": "inplace",
        "label": "struct Counters.Counter",
        "members": [
          {
            "astId": 1627,
            "contract": "contracts/AudoxoMarketplace.sol:AudoxoMarketplace",
            "label": "_value",
            "offset": 0,
            "slot": "0",
            "type": "t_uint256"
          }
        ],
        "numberOfBytes": "32"
      },
      "t_struct(MarketItem)2045_storage": {
        "encoding": "inplace",
        "label": "struct AudoxoMarketplace.MarketItem",
        "members": [
          {
            "astId": 2036,
            "contract": "contracts/AudoxoMarketplace.sol:AudoxoMarketplace",
            "label": "tokenId",
            "offset": 0,
            "slot": "0",
            "type": "t_uint256"
          },
          {
            "astId": 2038,
            "contract": "contracts/AudoxoMarketplace.sol:AudoxoMarketplace",
            "label": "seller",
            "offset": 0,
            "slot": "1",
            "type": "t_address_payable"
          },
          {
            "astId": 2040,
            "contract": "contracts/AudoxoMarketplace.sol:AudoxoMarketplace",
            "label": "owner",
            "offset": 0,
            "slot": "2",
            "type": "t_address_payable"
          },
          {
            "astId": 2042,
            "contract": "contracts/AudoxoMarketplace.sol:AudoxoMarketplace",
            "label": "price",
            "offset": 0,
            "slot": "3",
            "type": "t_uint256"
          },
          {
            "astId": 2044,
            "contract": "contracts/AudoxoMarketplace.sol:AudoxoMarketplace",
            "label": "sold",
            "offset": 0,
            "slot": "4",
            "type": "t_bool"
          }
        ],
        "numberOfBytes": "160"
      },
      "t_uint256": {
        "encoding": "inplace",
        "label": "uint256",
        "numberOfBytes": "32"
      }
    }
  }
}